:020000040800F2
:10000000100A0020290200087F1A0008DB130008EC
:100010007D1A00085B040008C71D000800000000EE
:10002000000000000000000000000000C11B0008EC
:100030005D04000800000000811A0008C31B0008CE
:10004000430200084302000843020008430200087C
:10005000430200084302000843020008430200086C
:10006000430200084302000843020008430200085C
:10007000430200084302000843020008430200084C
:10008000430200084302000843020008430200083C
:10009000430200084302000843020008430200082C
:1000A000430200084302000843020008430200081C
:1000B000430200086D1C0008791C00084302000878
:1000C00043020008430200084302000843020008FC
:1000D00043020008430200084302000843020008EC
:1000E00043020008430200084302000843020008DC
:1000F00043020008430200084302000843020008CC
:1001000043020008430200084302000843020008BB
:1001100043020008430200084302000843020008AB
:10012000430200084302000843020008430200089B
:10013000430200084302000843020008430200088B
:10014000430200084302000843020008430200087B
:10015000430200084302000843020008430200086B
:10016000430200084302000843020008430200085B
:100170004302000843020008430200080000000098
:10018000430200084302000800F002F800F03CF8C7
:100190000AA090E8000C82448344AAF10107DA45E2
:1001A00001D100F031F8AFF2090EBAE80F0013F0F8
:1001B000010F18BFFB1A43F0010318476832000013
:1001C00088320000103A24BF78C878C1FAD85207A4
:1001D00024BF30C830C144BF04680C6070470000C1
:1001E0000023002400250026103A28BF78C1FBD840
:1001F000520728BF30C148BF0B6070471FB502F0DF
:10020000CAFF1FBD10B510BD00F0F2F81146FFF790
:10021000F5FF02F0E7FE00F010F903B4FFF7F2FF7C
:1002200003BC00F013F90000094880470948004763
:10023000FEE7FEE7FEE7FEE7FEE7FEE7FEE7FEE796
:10024000FEE7FEE704480549054A064B70470000F3
:100250005D1C00088901000810040020100A00201D
:10026000100600201006002053EA020C00F06980FE
:100270002DE9F04B4FF00006002B1FBFB3FA83F5BA
:1002800003FA05F424FA05F65E4012BF1643B2FAEB
:1002900082F502FA05F4C5F120051EBF22FA05FC1D
:1002A00044EA0C04203556EA044C4FEA144418BFC3
:1002B000641C4FF000084FF00009904271EB030CF2
:1002C00039D3002919BFB1FA81F701FA07F6B0FA5C
:1002D00080F700FA07F6C7F120071EBF20FA07FCD7
:1002E00046EA0C062037B6FBF4FCA7EB0507103FE7
:1002F00007F01F0BCBF120060CFA0BFB2CFA06F6CD
:1003000044BFB3460026202FA4BF5E464FF0000B2B
:100310005BEA060C08BF4FF0010B19EB0B09ABFBB6
:10032000027C48EB0608C01B06FB02CC0BFB03CC8F
:1003300071EB0C01C1E70B46024641464846BDE859
:10034000F08B13B54FF000004FF00001AFF30080C9
:10035000BDE81C40704710B5431C02E010F8011BBB
:1003600071B18107FAD14FF0013202C88C1A8C4367
:1003700014EAC211F9D0C01A0A0603D0C01E10BD7B
:10038000C01A10BD0A0401D0801E10BD0902FCD0A5
:10039000401E10BD4FF0000200B51346944696462D
:1003A000203922BFA0E80C50A0E80C50B1F1200188
:1003B000BFF4F7AF090728BFA0E80C5048BF0CC036
:1003C0005DF804EB890028BF40F8042B08BF704794
:1003D00048BF20F8022B11F0804F18BF00F8012B06
:1003E000704770477047704700487047AC03002063
:1003F0007546FFF7F9FFAE4605006946534620F003
:100400000700854618B020B5FFF71CFFBDE8204067
:100410004FF000064FF000074FF000084FF0000BC0
:1004200021F00701AC46ACE8C009ACE8C009ACE873
:10043000C009ACE8C0098D46704710B50446AFF35B
:1004400000802046BDE81040FFF7E7BE01491820B4
:10045000ABBEFEE7260002007047FEE7704772B6AB
:10046000FEE7000070B5044600F00CF90546601C7C
:1004700002D004480078044400F004F9401BA04274
:10048000FAD370BD040000202DE9F84FDFF8BCA1BD
:100490000022012503264FF00F090AF1040BAAF1EF
:1004A000040E00BF0B6805FA02F42340A34270D18A
:1004B0000F7907F00307012F01D0022F16D18768AB
:1004C0004FEA420806FA08FC27EA0C07D1F80CC0EC
:1004D0000CFA08FC4CEA070CC0F808C04768A743B0
:1004E0000C79C4F3001494403C4344600C79E44319
:1004F000A4070AD0C4684FEA420C06FA0CF7BC43C2
:100500008F6807FA0CF72743C7600C7904F00304DF
:10051000022C12D1D40800EB840CDCF820405707E1
:10052000FF0E09FA07F824EA0804D1F8108008FA47
:1005300007F848EA0408CCF8208004684FEA420C27
:1005400006FA0CF7BC430F7907F0030707FA0CF71C
:10055000274307604C6814F4403F70D03C4C276838
:1005600047F480472760246822F0030704F480449E
:100570000094384C07EB040CDCF8084897074FEA66
:10058000177809FA08F7BC43334FB84202D1002765
:1005900024E054E0314FB84201D101271EE0304F32
:1005A000B84201D1022719E02E4FB84201D10327EA
:1005B00014E02D4FB84201D104270FE02B4FB84271
:1005C00001D105270AE02A4FB84201D1062705E0EC
:1005D000284FB84201D1072700E0082707FA08F79B
:1005E0002743CCF80878DAF800405746D1F804C021
:1005F0009C435FEACC2C00D51C433C60DBF80040F8
:100600005F46D1F804C09C435FEA8C2C00D51C43A4
:100610003C60DEF800407746D1F804C09C435FEAB6
:100620008C3C00D51C433C60084F083F3C68D1F827
:1006300004C09C435FEACC3C00D51C433C60521C88
:10064000102AFFF42FAFBDE8F88F0000083C0140EE
:1006500044380240003001400000024000040240E3
:1006600000080240000C024000100240001402404A
:1006700000180240001C02400AB181617047090461
:10068000FBE700000148806870470000040000207C
:10069000024881680278114481607047040000209C
:1006A0000B4810B5016841F400710160016841F424
:1006B00080610160016841F480710160032000F0F5
:1006C0006FF80F2000F006F800F024F8002010BDAD
:1006D000003C024070B50D4D04464FF47A71287805
:1006E000B1FBF0F00A490968B1FBF0F000F033FC0F
:1006F00048B9102C07D200222146501E00F030F8D5
:1007000000206C6070BD012070BD0000040000205E
:10071000100000200A4808B5016841F480410160DA
:10072000006800F4804000900548001F016841F017
:1007300080510160006800F08050009008BD00000A
:1007400044380240002809DB00F01F0201219140DB
:100750004009800000F1E020C0F80011704700005F
:10076000F0B40E4B1B680C46C3F30223C3F107051C
:10077000042D00D90425191D072901D2002300E00A
:10078000DB1E012606FA05F1491E214099409E40D4
:10079000761E16403143F0BC01F016BB0CED00E0B4
:1007A000064900F0070208684FF6FF03184040EAC8
:1007B0000220034A10430860704700000CED00E07F
:1007C0000000FA052DE9F0470E46050065D0DFF878
:1007D0001481D8F80000F7B200F00700B04207D249
:1007E00088F80070D8F8000000F00700B04254D13B
:1007F00028683D4C810712D5400703D5206840F496
:10080000E05020602878000703D5206840F460405D
:1008100020602068A96820F0F00008432060287854
:10082000C0072DD0304968680839012812D0022845
:1008300013D0032811D00968890700292DDA21680F
:1008400021F0030101432160FFF71CFF814641F2C3
:10085000883A0EE009688903EFE709688901ECE747
:10086000FFF710FFA0EB0901514502D90320BDE8B5
:10087000F0872068696800F00C00B0EB810FEFD1C1
:10088000D8F80010404601F00701B14207D90770BF
:10089000006800F00700B04201D00120E7E72878A7
:1008A000400705D52068E96820F4E050084320603F
:1008B0002878000706D52068296920F4604040EABE
:1008C000C100206000F018F82168084AC1F3031144
:1008D000515CC8400649086006480068FFF7FAFE08
:1008E0000020C4E7003C024008380240A031000864
:1008F0001000002008000020154810B5006810F016
:100900000C02144813D04110042A0FD0082A0ED12B
:100910000F4C241F2268236802F03F025B0207D5B8
:100920002068C0F38810A0FB010106E0084610BD56
:100930002168C1F38811A1FB00010023FFF794FC9B
:100940002168C1F30141491C4900B0FBF1F010BD21
:10095000083802400024F4002DE9F84F04006ED05E
:100960002078DFF84C93C007A9F104054AD009F1BB
:1009700004000168C1F38101012908D00068C0F3B7
:10098000810002280AD1D9F80000400206D5286863
:10099000800337D560680028E1D033E06068B0F5A7
:1009A000803F10D0B0F5A02F286810D020F4803000
:1009B0002860286820F4802028606068A8B1FFF7CC
:1009C00061FE06460DE0286840F48030F4E740F40C
:1009D00080202860F7E700BFFFF754FE801B6428E3
:1009E00073D828688003F7D50CE0FFF74BFE064666
:1009F00005E000BFFFF746FE801B6428F0D828689A
:100A00008003F7D42078DFF8AC8280074FF0000A2B
:100A10003ED5A748001D016811F00C0F08D00068F2
:100A2000C0F3810002280BD1D9F80000400207D49E
:100A30002868800716D5E068012800D112E033E16C
:100A4000E068B8B10120C8F80000FFF71BFE0646B9
:100A500005E000BFFFF716FE801B0228C0D82868FB
:100A60008007F7D52868216920F0F80040EAC10026
:100A700028600DE0C8F800A0FFF704FE064604E079
:100A8000FFF700FE801B02281FD828688007F7D4D4
:100A90002078000722D5864F87486169703771B189
:100AA00001210160FFF7EEFD064604E0FFF7EAFDD5
:100AB000801B022809D838688007F7D50EE0C0F8F7
:100AC00000A0FFF7DFFD064605E082E0FFF7DAFD54
:100AD000801B02287DD838688007F7D4207840072B
:100AE00068D5DFF8CCB100270BF13C0BDBF8000038
:100AF000C0000BD4DBF8001041F08051CBF800109F
:100B0000DBF80000012700F0805000906B4E306849
:100B1000C00510D4306840F480703060FFF7B2FD3B
:100B2000009005E0FFF7AEFD0099401A022850D86A
:100B30003068C005F6D55E4EA0686C3601280FD02F
:100B40000528306810D020F001003060306820F0B7
:100B500004003060A068B8B1FFF794FD00900FE08A
:100B6000306840F00100F4E740F004003060F7E73F
:100B7000FFF788FD0099411A41F28830814266D81A
:100B800030688007F4D50EE0FFF77CFD009007E0A9
:100B9000FFF778FD0099411A41F28830814256D81A
:100BA00030688007F4D42FB1DBF8001021F08051B9
:100BB000CBF80010A069C8B33D49091D0968C1F30D
:100BC000810102294AD00228504607D0C8F86000A7
:100BD00000E03CE0FFF756FD04463BE04746C8F81E
:100BE0006000FFF74FFD064605E000BFFFF74AFD36
:100BF000801B02282BD828688001F7D4D4E907018C
:100C00000843A16A2E4A490802EB0141626A41EA9F
:100C10008211084394F82C1040EA0161C9F80010D1
:100C200001203866FFF72EFD044606E03EE000BFD7
:100C3000FFF728FD001B022809D828688001F7D596
:100C400034E000BFFFF71EFD001B022802D903207D
:100C5000BDE8F88F28688001F4D427E00128F7D098
:100C6000D9F80000E26900F4800191421CD1226AA7
:100C700000F03F01914217D147F6C071626A01400E
:100C8000B1EB821F10D1A26A4FF0FF3300F4403164
:100C900003EB5202B1EB024F06D194F82C1000F096
:100CA0007060B0EB016F01D00120D1E70020CFE7E9
:100CB0000438024000004742800E47420070004066
:100CC0000000FFFF70B5040009D0606A002540B144
:100CD00025616561A56294F8510040B10CE00120E6
:100CE00070BD6068B0F5827FF4D0E561F2E784F80A
:100CF0005050204600F044F8022084F8510020684B
:100D0000016821F040010160A088218900F482700F
:100D100001F404410843A18901F400610843217CE6
:100D200001F002010843217D01F001010843218BFC
:100D300001F400710843217F01F03801084394F861
:100D4000201001F080010843218D01F40051084377
:100D500021680860A069042101EA104094F8241079
:100D600001F010010843216848602068C16921F43E
:100D70000061C1616565012084F85100002070BDEB
:100D800010B586B0044614216846FFF703FB1349EB
:100D90002068884220D112480021026842F4805223
:100DA0000260006800F4805005900D481438026815
:100DB00042F001020260006800F001000590E020AE
:100DC00000900220CDE9010103200390052004904A
:100DD00069460448FFF758FB06B010BD00300140DB
:100DE00044380240000002402DE9F84F044690F8D4
:100DF00050000026984615468A4601280CD0012747
:100E000084F85070FFF73EFC814694F85100B346D9
:100E1000012804D002269AE00220BDE8F88FBAF13A
:100E2000000F6FD0002D6DD0032084F85100C4F85E
:100E300054B0C4F830A0A586E586C4F838B0A4F84C
:100E40003CB0A4F83EB0C4F844B0C4F840B0A068C8
:100E5000B0F5004F09D12068016821F04001016020
:100E60002068016841F480410160206801684906FA
:100E700003D4016841F040010160E068B0F5006F03
:100E8000606803D058B3012D29D049E008B1012D85
:100E90001FD1206B21680088C86006E02068816847
:100EA000890709D5216B0988C160206B801C2063EC
:100EB000E08E401EE0860CE0FFF7E4FBA0EB0901AA
:100EC000414503D3B8F1FF3F03D006E0B8F1000F6E
:100ED00003D0E08E0028E1D125E0032635E0206B29
:100EE00021680078087306E02068816889070AD5C0
:100EF000216B09780173206B401C2063E08E401E3B
:100F0000E0860DE01FE0FFF7BDFBA0EB09014145C6
:100F100003D3B8F1FF3F03D0DFE7B8F1000FDCD017
:100F2000E08E0028E0D14A464146204600F0B6FD5A
:100F300008B120206065A06818B92068C168806881
:100F40000090606D08B1012601E084F8517084F8CA
:100F500050B0304661E710B5401EB0F1807F01D33C
:100F6000012010BD4FF0E02460610F21601700F0F8
:100F70002BFF0020A06107202061002010BD7047DA
:100F80007047000070B590F83C20012A32D001244F
:100F900080F83C40022280F83D2003685A689D6832
:100FA00022F070060A6832435A60134B02689A4274
:100FB00014D0B2F1804F11D0104B9A420ED0104B8A
:100FC0009A420BD00F4B9A4208D00F4B9A4205D051
:100FD0000E4B9A4202D00E4B9A4204D1496825F03A
:100FE00080031943916080F83D40002180F83C1057
:100FF000084670BD022070BD0000014000040040A2
:1010000000080040000C0040000401400040014086
:101010000018004010B5040003D094F83D0010B152
:1010200007E0012010BD002084F83C00204600F0BD
:101030001FF8022084F83D00211D206800F022FEE8
:10104000012084F8460084F83E0084F83F0084F8CC
:10105000400084F8410084F8420084F8430084F89A
:10106000440084F8450084F83D00002010BD0000D5
:1010700008B51A4A01681A4891420ED1016841F038
:10108000020101600068002200F002000090114699
:101090001D20FFF765FB1D2010E0124A914211D17F
:1010A000016841F0040101600068002200F00400C2
:1010B000009001211E20FFF753FB1E20BDE80840D1
:1010C000FFF740BB084A914207D1016841F0200177
:1010D0000160006800F02000009008BD000400409E
:1010E00040380240000800400014004090F83D10D5
:1010F000012901D001207047022180F83D100168CC
:10110000CA6842F00102CA6000681149884214D0DE
:10111000B0F1804F11D00F4988420ED00E4988425D
:101120000BD00E49884208D00D49884205D00D49A0
:10113000884202D00C49884204D1816801F007013D
:10114000062903D0016841F00101016000207047C9
:10115000000001400004004000080040000C004076
:1011600000040140004001400018004070B50446F2
:1011700090F83C000025012817D0012684F83C6037
:10118000022084F83D002068826822F0770222F471
:101190007F4282600868502838D00DDC20284FD06C
:1011A00005DC90B3102811D14AE0022070BD302830
:1011B00046D040280AD13BE060282FD070280DD0BF
:1011C000B0F5805F03D0B0F5005F12D0012584F840
:1011D0003D60002084F83C00284670BDCB68D1E912
:1011E0000121206800F0BAFD2068816841F0770194
:1011F00009E0CB68D1E90121206800F0AFFD20684B
:10120000816841F480418160E1E719E0CA6849687A
:10121000206800F0B5FD5021206806E0CA684968E2
:10122000206800F0BEFD6021206800F0A1FDCEE73F
:10123000CA684968206800F0A3FD40212068F4E7EF
:10124000226801461046F0E770472DE9F041044658
:101250000068C66805694FF00007A90713D5B107F4
:1012600011D5F91E0161012020772068806980076F
:10127000204602D0FFF7E8FF04E000F07EF82046A9
:1012800000F07CF82777680716D5700714D5216819
:101290006FF004000861022020772068806910F454
:1012A000407F204602D0FFF7CFFF04E000F065F852
:1012B000204600F063F82777280715D5300713D5A7
:1012C00021686FF008000861042020772068C06959
:1012D0008007204602D0FFF7B7FF04E000F04DF88A
:1012E000204600F04BF82777E80616D5F00614D50F
:1012F00021686FF010000861082020772068C0691D
:1013000010F4407F204602D0FFF79EFF04E000F07B
:1013100034F8204600F032F82777E80708D0F007C5
:1013200006D021686FF001000861204600F028F81F
:10133000280608D5300606D521686FF080000861C0
:101340002046FFF71CFE680608D5700606D5216802
:101350006FF040000861204600F03EF8A8060AD56C
:10136000B00608D521686FF0200008612046BDE86E
:10137000F041FFF705BEBDE8F081704770470000FF
:1013800010B5044600681049884211D1012001F0CF
:10139000BDFC0E490868401C0860642808D1002084
:1013A00008600B48D0F8881251B10021C0F88812AB
:1013B00008492068884205D1BDE8104000F00EB809
:1013C0000121F3E710BD00000008004000000020EC
:1013D00000804042000400407047FEE7154810B509
:1013E000D0F8000208B1012300E0002312480124D4
:1013F0004370017861B1002201290DD0022906D184
:101400000146C9787BB10270462900D2847010BDB4
:10141000002BFCD1047010BD0BB1027010BD022175
:101420000170C27010BD462900D94471491CC170B9
:1014300010BD000000004042140000202DE9F047DC
:10144000134C814600216088401E83B22088401ED4
:1014500082B2084600F05AF90E4E0020C6F8BC02CF
:101460004FF00108C6F8B882054609E0002703E0FE
:10147000484600F0CFF97F1C2088B842F8D86D1C90
:101480006088A842F2D8C6F8BC82BDE8F0870000A8
:10149000A00100200080404210B500F023F9CF20C9
:1014A00000F072F9002000F05FF9C92000F05CF94B
:1014B000302000F059F9ED2000F066F9642000F0CA
:1014C00053F9032000F050F9122000F04DF981206B
:1014D00000F04AF9E82000F057F9852000F044F9BF
:1014E000102000F041F97A2000F03EF9CB2000F006
:1014F0004BF9392000F038F92C2000F035F90020A4
:1015000000F032F9342000F02FF9022000F02CF91D
:10151000F72000F039F9202000F026F9EA2000F049
:1015200033F9002000F020F9002000F01DF9C02060
:1015300000F02AF91B2000F017F9C12000F024F96F
:10154000002000F011F9C52000F01EF9302000F055
:101550000BF9302000F008F9C72000F015F9B7208A
:1015600000F002F9362000F00FF9082000F0FCF836
:101570003A2000F009F9552000F0F6F8B12000F00B
:1015800003F9002000F0F0F81A2000F0EDF8B62082
:1015900000F0FAF80A2000F0E7F8A22000F0E4F8E2
:1015A000F22000F0F1F8002000F0DEF8262000F034
:1015B000EBF8012000F0D8F8E02000F0E5F80F206B
:1015C00000F0D2F82A2000F0CFF8282000F0CCF864
:1015D000082000F0C9F80E2000F0C6F8082000F03E
:1015E000C3F8542000F0C0F8A92000F0BDF8432053
:1015F00000F0BAF80A2000F0B7F80F2000F0B4F8B5
:10160000002000F0B1F8002000F0AEF8002000F05B
:10161000ABF8002000F0A8F8E12000F0B5F80020B9
:1016200000F0A2F8152000F09FF8172000F09CF8B9
:10163000072000F099F8112000F096F8062000F03D
:1016400093F82B2000F090F8562000F08DF83C2005
:1016500000F08AF8052000F087F8102000F084F8E8
:101660000F2000F081F83F2000F07EF83F2000F0CE
:101670007BF80F2000F078F82B2000F085F8002090
:1016800000F072F8002000F06FF8012000F06CF814
:101690003F2000F069F82A2000F076F8002000F0E2
:1016A00063F8002000F060F8002000F05DF8EF2003
:1016B00000F05AF8112000F067F87820FEF7D2FE0B
:1016C000292000F061F8032000F07EF80449012091
:1016D000C1F8B402BDE810404FF6FF70FFF7AEBE90
:1016E0000080404210B5084C0020C4F8B0026420CD
:1016F00004F52C74FEF7B6FE01202060BDE8104012
:101700003220FEF7AFBE0000008040422DE9F041DC
:10171000DFF8508007461C4615460E4698F80A002A
:1017200000F032F8380A00F01FF8F8B200F01CF8A8
:10173000280A00F019F8E8B200F016F898F80C0042
:1017400000F022F8300A00F00FF8F0B200F00CF8C8
:10175000200A00F009F8E0B200F006F8BDE8F04118
:1017600000F022B8A001002070B5064C0021C4F89A
:10177000BC120125C4F8B85204F52E7400F082F9A9
:10178000656070BD0080404210B5064C0021C4F871
:10179000BC12C4F8B81204F52E7400F073F90120DD
:1017A000606010BD008040420148007AFFF7ECBF46
:1017B000A001002010B50C46FFF7E6FFE0B2BDE83F
:1017C0001040FFF7D1BF000011492A224FF4A07347
:1017D0004A812B228A812C220A81F02258B10128C9
:1017E0000DD002280FD0032811D10B804A80A821E8
:1017F0003620FFF7DFBF0A804B800821F8E70B8017
:101800004A806821F4E70A804B80C821F0E77047DE
:10181000A001002070B5094C05460020C4F8BC02A8
:101820000126C4F8B862280A04F52E7400F02AF9DB
:10183000E8B200F027F9666070BD00000080404209
:101840002DE9F04387B014216846FEF7A3FD314827
:101850000024016841F080010160016801F080010D
:101860000591016841F001010160016801F0010189
:101870000591016841F002010160016801F0020177
:101880000591016841F0080101600068DFF8888077
:1018900000F00800059000224FF204014046FEF7D8
:1018A000EBFEDFF878904FF4604700223946484657
:1018B000FEF7E2FE0125CDE90054022669461848EC
:1018C0000296FEF7E1FD04200090CDE9015469463F
:1018D00040460394FEF7D8FD4FF47040CDE9000573
:1018E000CDE9024669464046FEF7CEFD4FF4C050B2
:1018F0008DE8310069464846FEF7C6FD009703961D
:10190000CDE9015469464846FEF7BEFD07B0BDE883
:10191000F08300003038024000040240000C024016
:10192000000002400F4810B50D4901604FF482716C
:10193000416000218160C1604FF400720161C0E923
:101940000512C1610162416281620A21C162FFF731
:10195000B9F9002803D0BDE81040FEF780BD10BDE6
:10196000003001407000002010B586B000241748F8
:101970000094019402940394049413490594016023
:10198000A721C0E9011442F20F71C0E90314846178
:10199000FFF740FB08B1FEF762FD4FF48050009066
:1019A00069460A48FFF7E2FB08B1FEF758FD0494C8
:1019B00004A906480594FFF7E5FA002801D0FEF7D0
:1019C0004EFD06B010BD000000040040C80000201D
:1019D00010B586B000241748009401940294039433
:1019E0000494134905940160A721C0E9011440F251
:1019F000E731C0E903148461FFF70CFB08B1FEF77F
:101A00002EFD4FF48050009069460A48FFF7AEFB68
:101A100008B1FEF724FD049404A906480594FFF7D5
:101A2000B1FA002801D0FEF71AFD06B010BD000083
:101A300000080040100100201CB500240E4800944E
:101A40000C4901940160A721C0E901144FF6FF7110
:101A50008461C160FFF7DEFA08B1FEF700FD009473
:101A6000694605480194FFF78DFA002801D0FEF77A
:101A7000F6FC1CBD0014004058010020FEE7FEE704
:101A80007047000001B54FF47A730122694602489D
:101A9000FFF7AAF908BD000070000020F8B5154650
:101AA0000E460B46009204460122022100F02CF85B
:101AB000A0B9134813490068B0FBF1F04FF47A71F4
:101AC000484300906068B0F5827F0DD13346002214
:101AD00080212046009500F017F870B1606D40F04D
:101AE000200060650320F8BD009830B1401E0090D2
:101AF00020688068C0430006F6D50020F8BD0000CD
:101B00001000002000366E012DE9F8431E46914674
:101B100088460446089DFEF7B5FD401B351AFEF7C2
:101B2000B1FD074625480068C0F3CB30684338E074
:101B3000701C37D0FEF7A6FDC01BA84203D215B11A
:101B4000009860B32CE02068416821F0E00141601A
:101B50006068B0F5827F0BD1A068B0F5004F02D06D
:101B6000B0F5806F04D12068016821F04001016068
:101B7000A06AB0F5005F09D12068016821F4005126
:101B800001602068016841F400510160012084F87F
:101B90005100002084F850000320BDE8F8830025A0
:101BA000401E00902068816838EA010004D00021BE
:101BB0004945BDD10020F0E70121F9E710000020E0
:101BC0007047FEF765BD000030B593B03021684620
:101BD000FEF7E0FB14210CA8FEF7DCFB1D480025F6
:101BE000016841F080510160006800F08050119060
:101BF0001948016841F4804101600068022400F442
:101C00008040119001200090000401908001CDE9F6
:101C1000064008AA0420A82182E813000B90684619
:101C2000FEF79AFE08B172B6FEE70CA90F2081E814
:101C300031004FF4A0500F904FF4805010900521C8
:101C40000CA8FEF7BFFD002801D072B6FEE713B066
:101C500030BD00004038024000700040024801687A
:101C600041F470010160704788ED00E00148FFF722
:101C7000ECBA0000C80000200148FFF7E6BA0000F7
:101C800010010020F0B50268294C2A4D2A4E2B4F36
:101C90002B4B4FF0804CA04209D0604507D0A842A2
:101CA00005D0B04203D0B84201D0984204D122F00E
:101CB000700E4A6842EA0E02A0421BD0604519D05D
:101CC000A84217D0B04215D0B84213D0984211D0D4
:101CD0001C4DA8420ED01C4DA8420BD01B4DA84253
:101CE00008D01B4DA84205D01A4DA84202D01A4D6B
:101CF000A84203D122F44075CA682A434D6922F0F4
:101D000080022A4302608A68C2620A688262A04234
:101D100001D0984201D10969016301214161016942
:101D2000C90703D0016921F001010161F0BD000084
:101D3000000001400004004000080040000C00408A
:101D400000040140004001400044014000480140BF
:101D500000180040001C00400020004010B58468BE
:101D600042EA032224F47F440A432243826010BDE6
:101D7000826822F070020A4342F0070181607047D6
:101D800010B5036A046A24F001040462846924F033
:101D9000F00444EA021423F00A020A438461026256
:101DA00010BD10B5036A046A24F01004046284694B
:101DB00023F0A00324F4704444EA023243EA011100
:101DC0008261016210BDFEE70907090E002804DBED
:101DD00000F1E02080F80014704700F00F0000F1DF
:101DE000E02080F8141D704770B5044600256FF0A0
:101DF0002F0608E02068411C2160007805EB850172
:101E000006EB410145182068007800F004F800282E
:101E1000F0D1284670BD3038092801D8012070471C
:101E200000207047002800D0406870470068091DF6
:101E300040587047002800D08068704770B5040093
:101E40000DD0FFF7EFFF00228842204608D1FFF7B0
:101E5000EDFF6060011E01D000221EE0A26070BD97
:101E6000FFF7E8FF8842206808440AD10168A160B2
:101E700029B12046BDE87040002201F0EBB8626055
:101E800070BD05682046FFF7D1FF06460246294689
:101E9000204601F0DFF82A4631462046BDE8704072
:101EA00001F0DEB82DE9F047ADF50A7D9A4691467E
:101EB0000E460746062842DA022F40DB93A8899097
:101EC0000846FEF748FA040006D0305D2F283AD0C5
:101ED0005C2838D0641EF8D100F00EFFDFF86C806B
:101EE0000546D8F8040030B39298879089A8889066
:101EF0004FF47A70B5FBF0F1344400FB115187AE1A
:101F0000CDE90464B5FBF0F0CDF80CA0CDF8189045
:101F1000D8F800204446AA1A8DE8070008F1080006
:101F20000BA250F827304FF4007107A800F0CEFE46
:101F3000616807A888470020C8F8005089900DF50F
:101F40000A7DBDE8F087641CC6E700003800002069
:101F50005B25735D092825642E253033642C202BE6
:101F6000256429092025733A2025705620092869FF
:101F70006E202573206C696E6520232564290A0074
:101F80002DE9FC5F9B460CAB8A468146DDE911607A
:101F900093E81210DDE90F575FEA80784FF03003C5
:101FA0001AD45EB15FEAC07808D000F00C0858EA95
:101FB0000C0803D0761E01E00B55641CBC4204D211
:101FC000202CF9D301E00B55641C5FEAC07803D0E4
:101FD000B44201D2202CF6D35FEAC06825D55FEA6F
:101FE00040580AD44CB1BC4201D0B44205D1641E61
:101FF00003D0102D03D1641E04E0102D02D0022D59
:102000000AD00EE0850603D4202C1ED2782506E0E7
:10201000202C1AD2582502E0202C16D262250D550C
:10202000641C202C11D20B55641C202C0DD2BCF149
:10203000000F01D02D2306E0430701D52B2302E03A
:10204000030702D520230B55641CCDE900BAC8460E
:10205000154681468B46AA46800714D1274607E0DD
:102060002A46DDE900316D1C2020C446E0477F1C74
:10207000B742F5D307E02A466D1C641EDDE9003146
:102080001BF80400C047002CF5D15FEA897006D424
:1020900009E02A46DDE900316D1C2020C047A5EB90
:1020A0000A00B042F5D32846BDE8FC9F2DE9F04F69
:1020B0008FB099468B46DDE91818DDE91C63DDE930
:1020C0001A4792468646002209B923F010035805A4
:1020D00007AD00D5C9B1B1FBF4F004FB1010C0B2DC
:1020E0000A2801D2303009E05FEA836C02D54FF054
:1020F000410C01E04FF0610C60440A38B1FBF4F18F
:10210000A854521C09B1202AE5D3CDF80880CDE9A6
:102110000563CDE90052CDE903474B465246594687
:102120007046FFF72DFF0FB0BDE8F08F2DE9FF4F90
:102130008FB01CACDDE9239594E8030820AC94E84B
:10214000C004002450EA010201D125F010056A05FF
:102150000DF11C0802D550EA010217D032463B4669
:10216000FEF782F8D2B20A2A01D2303206E0AB067C
:1021700001D5412300E061231A440A3A08F80420FB
:10218000641C50EA010201D0202CE7D3CDE9008481
:10219000CDF808B0CDE90595CDE9036A0FAF97E812
:1021A0000F00FFF7EDFE13B0BDE8F08F9A4200D2AA
:1021B00088547047704700002DE9FF4F89B00546ED
:1021C0000A9800249246002800D1FE4D8FE1252870
:1021D00004D02246641C53460A990BE2491C4FF076
:1021E000000808460C9101782B2919D004DC20291D
:1021F00019D0232904D119E02D290ED0302909D076
:102200000026C8B2FFF707FEB0B10CA8FFF7ECFD3F
:1022100006461FE048F001010AE048F0020107E02D
:1022200048F0040104E048F0080101E048F0100122
:10223000401C88460C90D6E70C9908782A2809D1CA
:10224000169840C81690002E02DA48F0020876422E
:10225000491C0C910C984FF0000B01782E2919D1D4
:10226000401C0C9048F480680078FFF7D4FD20B142
:102270000CA8FFF7B9FD83460CE00C9A10782A28C9
:1022800008D1169802C81690002900DC0021521CC3
:102290008B460C920C9801786C290AD004DC6829D2
:1022A0000FD06A2919D128E0742929D07A2914D1AC
:1022B00026E0401C0C90017848F480786C291CD0F2
:1022C0000BE0401C0C90017848F08008682904D18C
:1022D00048F04001401C88460C900246007869286E
:1022E00022D015DC62281FD00DDC252871D05028A3
:1022F0001AD058287FF46DAF16E048F40071E9E772
:1023000048F48071E6E7632878D06428F2D10BE0C6
:10231000732874D004DC6F2806D07028EAD103E05B
:10232000752801D07828E5D178280DD058280BD011
:1023300070280BD0502809D06F2816D0622816D0EC
:102340000A2128F0100016E0102107E05078102133
:1023500048F48878562804D1521C0C9210785828DA
:1023600007D01078502804D006E0082109E00221A7
:1023700007E048F0200080461078692803D06428E0
:1023800001D028F00C085FEA485001D528F0010878
:10239000107869281ED064281CD0562864D05FEAC3
:1023A000885072D5169804ABC01D002283E8060839
:1023B0000292CDE9076820F007005346F0E80212C8
:1023C000CDE900121690224628460A99FFF7AEFE84
:1023D00089E00AE15FEA885024D5169804AFC01D51
:1023E00020F00703F3E802021693002387E80A08A7
:1023F000CDE90768002A03DA012102E080E0A6E0C7
:1024000000210023029119461B1A914101DA11465D
:1024100003E00021404261EB020153462246CDE930
:102420000001D1E75FEAC85004D5169804C80FE050
:10243000524215E05FEA486003D5169810F8042B65
:1024400006E05FEA0860F0D5169830F8042B12B267
:102450001690CDE9021BCDE90468D00F002AE7DD14
:10246000CDE9002053461EE01698AAEB040202C8EC
:1024700016904868006800900A980B680119284671
:10248000FFF79AFE04442FE0FFE75FEAC8500CD53F
:10249000CDE9021BCDE9046816980021534604C813
:1024A000CDE900211690224619E05FEA486003D585
:1024B000169810F8042B08E05FEA0860169803D518
:1024C00030F8042B92B200E004C816900020CDE949
:1024D0000020CDE9021BCDE9046853462246284678
:1024E0000A99FFF7E3FD04460C98401C0C900C99E8
:1024F000087800287FF46BAE54457DD222467DE0FB
:1025000001275FEA887006D509E02246641C53461D
:1025100020200A99A84738467F1CB042F5D3169967
:102520002246641C11F8040B169153460A99A847D9
:102530005FEA887006D4D7E72246641C5346202001
:102540000A99A84738467F1CB042F5D3CCE71698C5
:1025500050F8049B16904B46BBF1000001D0014699
:1025600001E04FF0FF31484600E0401C02780AB11C
:10257000491EFAD2C71A5FEA485003D558465F454C
:1025800000D307465FEA887006D512E02246641C35
:10259000534620200A99A84738467F1CB042F5D3FD
:1025A00007E000BF224609F10109641C53460A995D
:1025B000A84799F8000040B15FEA4851F2D5BBF155
:1025C000010B01E0B5210008ECD25FEA887006D467
:1025D0008AE72246641C534620200A99A8473846B9
:1025E0007F1CB042F5D37FE706E02246641C5346C9
:1025F00025200A99A84777E7AAF10102534600204F
:102600000A99A8470DB02046BDE8F08F1CB50844D4
:102610004A1E401E904311420BD006A115A0CDE9E1
:1026200000011B4B40F2F5121AA10320FFF73AFC00
:10263000FEE71CBD30203D3D2028616C69676E209F
:10264000262028616C69676E202D203129292026DB
:102650002620226D75737420616C69676E20746F1B
:10266000206120706F776572206F662074776F220B
:10267000000000004173736572746564206174200A
:1026800065787072657373696F6E3A202573000008
:10269000FB3100082E2E5C4253505C4D6964646C23
:1026A0006577617265735C4C56474C5C4755495C75
:1026B0006C76676C5C7372635C6D6973635C6C767B
:1026C0005F746C73662E63001CB504464068820814
:1026D0000AD0496821F00301091D084460602046C2
:1026E00000F065F820461CBD05A113A0CDE900014E
:1026F000184B40F2A62218A10320FFF7D3FBFEE7F8
:1027000021626C6F636B5F69735F6C6173742870B7
:1027100072657629202626202270726576696F758B
:102720007320626C6F636B2063616E277420626537
:10273000206C617374220000417373657274656468
:102740002061742065787072657373696F6E3A20CA
:10275000257300004B3200082E2E5C4253505C4D16
:102760006964646C6577617265735C4C56474C5C58
:102770004755495C6C76676C5C7372635C6D69731A
:10278000635C6C765F746C73662E63007CB5054683
:1027900048680C4620F0030001AA694600F044FC9A
:1027A000DDE900232146284600F0D0F97CBD10B5B4
:1027B000044600F011F9046010BD10B50446FFF79F
:1027C000F6FF416841F002014160606840F001009D
:1027D000606010BD7CB506460D46084600F0FCF86A
:1027E000040010D02079C0070BD06868800816D08C
:1027F0002146304600F098F921462846FFF764FF4D
:10280000054628467CBD0CA116A0CDE900011C4B55
:1028100040F2BF221BA10320FFF744FBFEE726A1E5
:1028200010A0CDE90001164B40F2C22215A10320F1
:10283000FFF738FBFEE700006E657874202626203F
:10284000226E65787420706879736963616C2062A8
:102850006C6F636B2063616E2774206265206E75F8
:102860006C6C22004173736572746564206174201E
:1028700065787072657373696F6E3A202573000016
:10288000693200082E2E5C4253505C4D6964646CC2
:102890006577617265735C4C56474C5C4755495C83
:1028A0006C76676C5C7372635C6D6973635C6C7689
:1028B0005F746C73662E630021626C6F636B5F697B
:1028C000735F6C61737428626C6F636B29202626BA
:1028D000202270726576696F757320626C6F636B0E
:1028E0002063616E2774206265206C61737422001E
:1028F0007CB5064608790D46800710D5084600F0DD
:10290000B9F804000DD02079C00716D02146304612
:1029100000F00AF929462046FFF7D6FE054628466C
:102920007CBD0CA116A0CDE900011C4B40F2B222E7
:102930001BA10320FFF7B6FAFEE7264910A0CDE958
:102940000001164B40F2B32215A10320FFF7AAFAAB
:10295000FEE70000707265762026262022707265E0
:102960007620706879736963616C20626C6F636B49
:102970002063616E2774206265206E756C6C220086
:102980004173736572746564206174206578707238
:10299000657373696F6E3A20257300005832000822
:1029A0002E2E5C4253505C4D6964646C6577617295
:1029B00065735C4C56474C5C4755495C6C76676C5C
:1029C0005C7372635C6D6973635C6C765F746C736B
:1029D000662E6300783300081CB5426800F10801D8
:1029E00022F00300001F084491080BD106A10CA09F
:1029F000CDE90001114B4FF4E57211A10320FFF75F
:102A000051FAFEE71CBD000021626C6F636B5F69C9
:102A1000735F6C61737428626C6F636B29000000D4
:102A20004173736572746564206174206578707297
:102A3000657373696F6E3A2025730000DC310008FE
:102A40002E2E5C4253505C4D6964646C65776172F4
:102A500065735C4C56474C5C4755495C6C76676CBB
:102A60005C7372635C6D6973635C6C765F746C73CA
:102A7000662E63001CB5017989070BD406A115A049
:102A8000CDE900011A4B40F2C1121AA10320FFF751
:102A900009FAFEE700681CBD626C6F636B5F6973C7
:102AA0005F707265765F6672656528626C6F636BD6
:102AB00029202626202270726576696F7573206240
:102AC0006C6F636B206D7573742062652066726530
:102AD000652200004173736572746564206174201F
:102AE00065787072657373696F6E3A2025730000A4
:102AF000D13100082E2E5C4253505C4D6964646CE9
:102B00006577617265735C4C56474C5C4755495C10
:102B10006C76676C5C7372635C6D6973635C6C7616
:102B20005F746C73662E63007CB5054648680C467E
:102B300020F0030001AA694600F076FADDE90023DF
:102B40002146284600F092FA7CBD00002DE9FC47A2
:102B500017460C46984600EBC71101EB880906465C
:102B6000D9F83C00C0B1002C22D0C4E9020604F11F
:102B70000805C46028460421FFF748FD854223D09C
:102B80001A491BA0CDE90001204B40F26D2220A183
:102B90000320FFF787F9FEE72AA115A0CDE9000180
:102BA0001A4B40F267221AA10320FFF77BF9FEE7D8
:102BB00030A10FA0CDE90001144B4FF41A7214A1FB
:102BC0000320FFF76FF9FEE7C9F83C4001203169A7
:102BD00000FA07F21143316106EB870100FA08F0B1
:102BE0004A6902434A61BDE8FC870000C03300081F
:102BF00041737365727465642061742065787072C6
:102C0000657373696F6E3A20257300002D320008DA
:102C10002E2E5C4253505C4D6964646C6577617222
:102C200065735C4C56474C5C4755495C6C76676CE9
:102C30005C7372635C6D6973635C6C765F746C73F8
:102C4000662E630063757272656E742026262022DC
:102C500066726565206C6973742063616E6E6F7453
:102C600020686176652061206E756C6C20656E74DD
:102C700072792200626C6F636B20262620226361CA
:102C80006E6E6F7420696E736572742061206E754C
:102C90006C6C20656E74727920696E746F20746834
:102CA000652066726565206C6973742200000000FF
:102CB0000549884206D0002804D0014602484068F1
:102CC00000F022B970470000540000200FB40A46FB
:102CD00008B505A9009101460348049BFFF76CFA6B
:102CE00001B05DF814FB0000AD21000810B50446EA
:102CF00000F002F8001B10BD0349012248680A7069
:102D00000B78002BFBD070471C00002003490022E9
:102D10000A704A6810444860704700001C00002098
:102D200010B5044601460548FFF788F8044901201C
:102D3000C8702046BDE81040FFF7BABFB0010020C0
:102D40005C0000202DE9F84F4D4CA07810B1012017
:102D5000BDE8F88F0120A0702078002628B1FFF789
:102D6000CBFF5FEA000902D00FE0A670EFE7206911
:102D7000401C2061642808D942A0266100904B4B7A
:102D80005E224BA10220FFF78DF8574D4FEA06084F
:102D900084F8038084F804805448FFF743F82860DF
:102DA00037E05248FFF742F82E680746307DC007EB
:102DB0002ED18246304600F09BF888B93069B0F1D8
:102DC000000A01DD401E3061FFF796FF7060B168B8
:102DD00021B1BAF1000F01D0304688474FF0010A07
:102DE000E07820B9306910B93046FFF799FFBAF1A1
:102DF000000F0DD02079E178084309D02868002819
:102E0000C6D100BF4FF0FF363848FFF70BF811E08E
:102E10002F6029680029C4D1F4E7287DC00705D1B7
:102E2000284600F065F8B04200D2064629462F48F1
:102E3000FEF7FCFF0500F0D14846FFF757FFE168B9
:102E40000844E060A068FFF751FFB0F5FA7F13D3A4
:102E5000E16864225143B1FBF0F0C0B260706428B5
:102E600001D9002001E0C0F1640060702546C4F87B
:102E70000C80FFF741FFA86084F80280304667E7C6
:102E80005C0000204974207365656D73206C765F6B
:102E90007469636B5F696E632829206973206E6FA4
:102EA000742063616C6C65642E000000B031000812
:102EB0002E2E5C4253505C4D6964646C6577617280
:102EC00065735C4C56474C5C4755495C6C76676C47
:102ED0005C7372635C6D6973635C6C765F74696D5F
:102EE00065722E630000000028000020B001002061
:102EF00010B504464068FFF7F9FE2168814201D809
:102F0000002010BD081A10BD7CB5002922D0083958
:102F1000054608790C46C0070BD00FA11CA0CDE9CF
:102F20000001224B40F28E4221A10320FEF7BAFF9E
:102F3000FEE70846FFF741FC21462846FFF7D8FC8C
:102F400001462846FFF746FC01462846BDE87C407E
:102F5000FFF71CBC7CBD000021626C6F636B5F6976
:102F6000735F6672656528626C6F636B2920262625
:102F70002022626C6F636B20616C726561647920E2
:102F80006D61726B656420617320667265652200F5
:102F90004173736572746564206174206578707222
:102FA000657373696F6E3A20257300003233000831
:102FB0002E2E5C4253505C4D6964646C657761727F
:102FC00065735C4C56474C5C4755495C6C76676C46
:102FD0005C7372635C6D6973635C6C765F746C7355
:102FE000662E6300FDF75CFBFEF7EEFDFEF728FCA6
:102FF000FEF798FCFEF7ECFCFEF71EFDFEF7B4FCB6
:103000000748FEF773F80748FEF770F8FEF744FA32
:103010004FF47840FEF712FAFFF794FEFCE7000049
:1030200010010020C800002070B515460E46044669
:10303000802805D2E117002004EB9171891006E089
:1030400000F0A2F8411FCC4084F02001801F3060C6
:10305000296070BD002902D00068091D42507047E8
:10306000002901D000684250704700007CB5D1E9CA
:103070000245DDB1002C25D0E560AC6000EBC21547
:1030800005EB8305EE6B8E420FD1EC6384420CD1CD
:1030900000EB820501216C6901FA03F39C436C612A
:1030A00003D1036991408B4303617CBD0BA116A042
:1030B000CDE900011B4B40F24E221BA10320FEF77D
:1030C000F1FEFEE725A110A0CDE90001154B40F26D
:1030D0004F2215A10320FEF7E5FEFEE7707265762C
:1030E0002026262022707265765F667265652066EE
:1030F00069656C642063616E206E6F742062652068
:103100006E756C6C220000004173736572746564A7
:103110002061742065787072657373696F6E3A20F0
:10312000257300001B3200082E2E5C4253505C4D6C
:103130006964646C6577617265735C4C56474C5C7E
:103140004755495C6C76676C5C7372635C6D697340
:10315000635C6C765F746C73662E63006E65787466
:1031600020262620226E6578745F6672656520666B
:1031700069656C642063616E206E6F7420626520E7
:103180006E756C6C2200000018B1B0FA80F0C0F1CE
:103190002000401E70474FF04070E1EE100A70476B
:1031A00000000000000000000102030406070809F7
:1031B0006C765F74696D65725F68616E646C657270
:1031C000006C765F74696D65725F637265617465CA
:1031D00000626C6F636B5F7072657600626C6F6328
:1031E0006B5F6E65787400616C69676E5F75700007
:1031F000616C69676E5F646F776E00616C69676EA2
:103200005F707472007365617263685F737569746F
:1032100061626C655F626C6F636B0072656D6F7687
:10322000655F667265655F626C6F636B00696E7384
:103230006572745F667265655F626C6F636B006276
:103240006C6F636B5F73706C697400626C6F636B3F
:103250005F6162736F726200626C6F636B5F6D655A
:103260007267655F7072657600626C6F636B5F6D2D
:10327000657267655F6E65787400626C6F636B5F23
:103280007472696D5F6672656500626C6F636B5F17
:103290007472696D5F7573656400626C6F636B5FF8
:1032A0006C6F636174655F6672656500626C6F6305
:1032B0006B5F707265706172655F757365640069DC
:1032C0006E746567726974795F77616C6B657200A3
:1032D0006C765F746C73665F636865636B006465CE
:1032E0006661756C745F77616C6B6572006C765F9C
:1032F000746C73665F6164645F706F6F6C006C7692
:103300005F746C73665F72656D6F76655F706F6F0B
:103310006C006C765F746C73665F63726561746574
:10332000006C765F746C73665F6D656D616C696768
:103330006E006C765F746C73665F66726565006CB8
:10334000765F746C73665F7265616C6C6F630000AE
:1033500054726163650000005761726E00000000E6
:10336000496E666F00000000557365720000000032
:103370004572726F72000000626C6F636B5F6973FD
:103380005F66726565287072657629202626202280
:103390007072657620626C6F636B206973206E6F4C
:1033A0007420667265652074686F756768206D614A
:1033B000726B65642061732073756368220000007E
:1033C000626C6F636B5F746F5F70747228626C6F96
:1033D000636B29203D3D20616C69676E5F7074727C
:1033E00028626C6F636B5F746F5F70747228626CBD
:1033F0006F636B292C20414C49474E5F53495A4516
:10340000292026262022626C6F636B206E6F742049
:10341000616C69676E65642070726F7065726C793B
:10342000220000004434000800000020700000006A
:10343000C4010008B434000870000020A009000096
:10344000E001000800000000010000001000000082
:10345000000000000024F400000000000000000054
:10346000000000000000000000000000000000005C
:10347000000000000000000000000000000000004C
:103480000000000050330008603300085833000883
:103490007033000868330008D4C3B2A100000000F4
:1034A000000000000000000000000000000000001C
:0434B0000000000018
:040000050800018965
:00000001FF
